8=FIX.4.2|9=67|35=A|34=1|49=client|52=20211217-01:05:44.523|56=server|98=0|108=30|10=015|8=FIX.4.2|9=112|35=D|34=2|49=client|52=20211217-01:05:45.509|56=server|11=342|21=1|40=1|54=1|55=6758.T|60=20211217-01:05:45.508|10=175|8=FIX.4.2|9=55|35=0|34=3|49=client|52=20211217-01:06:16.498|56=server|10=239|8=FIX.4.2|9=67|35=A|34=4|49=client|52=20211217-02:51:45.916|56=server|98=0|108=30|10=027|8=FIX.4.2|9=112|35=D|34=5|49=client|52=20211217-02:51:46.915|56=server|11=342|21=1|40=1|54=1|55=6758.T|60=20211217-02:51:46.913|10=185|8=FIX.4.2|9=67|35=A|34=6|49=client|52=20211217-02:52:15.896|56=server|98=0|108=30|10=034|8=FIX.4.2|9=55|35=0|34=7|49=client|52=20211217-02:52:45.897|56=server|10=250|8=FIX.4.2|9=55|35=0|34=8|49=client|52=20211217-02:53:15.898|56=server|10=250|8=FIX.4.2|9=67|35=A|34=9|49=client|52=20211217-02:56:46.987|56=server|98=0|108=30|10=046|8=FIX.4.2|9=113|35=D|34=10|49=client|52=20211217-02:56:47.991|56=server|11=342|21=1|40=1|54=1|55=6758.T|60=20211217-02:56:47.990|10=251|8=FIX.4.2|9=56|35=0|34=11|49=client|52=20211217-02:57:18.980|56=server|10=036|8=FIX.4.2|9=56|35=0|34=12|49=client|52=20211217-02:57:48.985|56=server|10=045|8=FIX.4.2|9=56|35=0|34=13|49=client|52=20211217-02:58:19.974|56=server|10=043|8=FIX.4.2|9=56|35=0|34=14|49=client|52=20211217-02:58:49.970|56=server|10=043|8=FIX.4.2|9=68|35=A|34=15|49=client|52=20211217-02:59:37.971|56=server|98=0|108=30|10=088|8=FIX.4.2|9=56|35=0|34=16|49=client|52=20211217-03:00:07.979|56=server|10=036|8=FIX.4.2|9=56|35=0|34=17|49=client|52=20211217-03:00:37.982|56=server|10=034|8=FIX.4.2|9=56|35=0|34=18|49=client|52=20211217-03:01:08.826|56=server|10=031|8=FIX.4.2|9=56|35=0|34=19|49=client|52=20211217-03:01:38.828|56=server|10=037|8=FIX.4.2|9=56|35=0|34=20|49=client|52=20211217-03:02:08.824|56=server|10=023|8=FIX.4.2|9=56|35=0|34=21|49=client|52=20211217-03:02:38.827|56=server|10=030|8=FIX.4.2|9=56|35=0|34=22|49=client|52=20211217-03:03:08.826|56=server|10=028|8=FIX.4.2|9=56|35=0|34=23|49=client|52=20211217-03:03:38.829|56=server|10=035|8=FIX.4.2|9=56|35=0|34=24|49=client|52=20211217-03:04:08.823|56=server|10=028|8=FIX.4.2|9=56|35=0|34=25|49=client|52=20211217-03:04:38.823|56=server|10=032|8=FIX.4.2|9=56|35=0|34=26|49=client|52=20211217-03:05:08.822|56=server|10=030|8=FIX.4.2|9=56|35=0|34=27|49=client|52=20211217-03:05:38.818|56=server|10=039|8=FIX.4.2|9=56|35=0|34=28|49=client|52=20211217-03:06:08.824|56=server|10=035|8=FIX.4.2|9=56|35=0|34=29|49=client|52=20211217-03:06:38.819|56=server|10=043|8=FIX.4.2|9=56|35=0|34=30|49=client|52=20211217-03:07:08.826|56=server|10=031|8=FIX.4.2|9=56|35=0|34=31|49=client|52=20211217-03:07:38.830|56=server|10=030|8=FIX.4.2|9=56|35=0|34=32|49=client|52=20211217-03:08:08.829|56=server|10=037|8=FIX.4.2|9=56|35=0|34=33|49=client|52=20211217-03:08:38.832|56=server|10=035|8=FIX.4.2|9=56|35=0|34=34|49=client|52=20211217-03:09:08.824|56=server|10=035|8=FIX.4.2|9=56|35=0|34=35|49=client|52=20211217-03:09:38.827|56=server|10=042|8=FIX.4.2|9=56|35=0|34=36|49=client|52=20211217-03:10:08.818|56=server|10=032|8=FIX.4.2|9=68|35=A|34=37|49=client|52=20211217-03:13:37.020|56=server|98=0|108=30|10=068|8=FIX.4.2|9=113|35=D|34=38|49=client|52=20211217-03:13:37.244|56=server|11=342|21=1|40=1|54=1|55=6758.T|60=20211217-10:13:37.240|10=224|