8=FIX.4.2|9=67|35=A|34=1|49=server|52=20211217-01:05:44.534|56=client|98=0|108=30|10=017|8=FIX.4.2|9=55|35=0|34=2|49=server|52=20211217-01:06:15.232|56=client|10=223|8=FIX.4.2|9=67|35=A|34=3|49=server|52=20211217-02:51:45.945|56=client|98=0|108=30|10=028|8=FIX.4.2|9=67|35=A|34=4|49=server|52=20211217-02:52:15.935|56=client|98=0|108=30|10=026|8=FIX.4.2|9=55|35=0|34=5|49=server|52=20211217-02:52:46.257|56=client|10=239|8=FIX.4.2|9=67|35=A|34=6|49=server|52=20211217-02:56:47.008|56=client|98=0|108=30|10=028|8=FIX.4.2|9=64|35=2|34=7|49=server|52=20211217-02:56:47.017|56=client|7=8|16=0|10=116|8=FIX.4.2|9=55|35=0|34=8|49=server|52=20211217-02:57:17.441|56=client|10=240|8=FIX.4.2|9=55|35=0|34=9|49=server|52=20211217-02:57:47.447|56=client|10=250|8=FIX.4.2|9=56|35=0|34=10|49=server|52=20211217-02:58:17.447|56=client|10=033|8=FIX.4.2|9=56|35=0|34=11|49=server|52=20211217-02:58:47.439|56=client|10=038|8=FIX.4.2|9=68|35=A|34=12|49=server|52=20211217-02:59:38.007|56=client|98=0|108=30|10=076|8=FIX.4.2|9=56|35=0|34=13|49=server|52=20211217-03:00:08.814|56=client|10=022|8=FIX.4.2|9=56|35=0|34=14|49=server|52=20211217-03:00:38.816|56=client|10=028|8=FIX.4.2|9=56|35=0|34=15|49=server|52=20211217-03:01:08.822|56=client|10=024|8=FIX.4.2|9=56|35=0|34=16|49=server|52=20211217-03:01:38.825|56=client|10=031|8=FIX.4.2|9=56|35=0|34=17|49=server|52=20211217-03:02:08.823|56=client|10=028|8=FIX.4.2|9=56|35=0|34=18|49=server|52=20211217-03:02:38.826|56=client|10=035|8=FIX.4.2|9=56|35=0|34=19|49=server|52=20211217-03:03:08.825|56=client|10=033|8=FIX.4.2|9=56|35=0|34=20|49=server|52=20211217-03:03:38.826|56=client|10=029|8=FIX.4.2|9=56|35=0|34=21|49=server|52=20211217-03:04:08.820|56=client|10=022|8=FIX.4.2|9=56|35=0|34=22|49=server|52=20211217-03:04:38.822|56=client|10=028|8=FIX.4.2|9=56|35=0|34=23|49=server|52=20211217-03:05:08.820|56=client|10=025|8=FIX.4.2|9=56|35=0|34=24|49=server|52=20211217-03:05:38.815|56=client|10=033|8=FIX.4.2|9=56|35=0|34=25|49=server|52=20211217-03:06:08.820|56=client|10=028|8=FIX.4.2|9=56|35=0|34=26|49=server|52=20211217-03:06:38.817|56=client|10=038|8=FIX.4.2|9=56|35=0|34=27|49=server|52=20211217-03:07:08.822|56=client|10=033|8=FIX.4.2|9=56|35=0|34=28|49=server|52=20211217-03:07:38.827|56=client|10=042|8=FIX.4.2|9=56|35=0|34=29|49=server|52=20211217-03:08:08.828|56=client|10=042|8=FIX.4.2|9=56|35=0|34=30|49=server|52=20211217-03:08:38.829|56=client|10=038|8=FIX.4.2|9=56|35=0|34=31|49=server|52=20211217-03:09:08.821|56=client|10=029|8=FIX.4.2|9=56|35=0|34=32|49=server|52=20211217-03:09:38.824|56=client|10=036|8=FIX.4.2|9=56|35=0|34=33|49=server|52=20211217-03:10:08.816|56=client|10=027|8=FIX.4.2|9=68|35=A|34=34|49=server|52=20211217-03:13:37.101|56=client|98=0|108=30|10=065|